:020000040800F2
:1000000000000220D1030008BD030008BF03000860
:10001000C1030008C3030008C50300080000000076
:10002000000000000000000000000000C7030008FE
:10003000C903000800000000CB030008CD0300083E
:1000400021040008210400082104000821040008FC
:1000500021040008210400082104000821040008EC
:1000600021040008210400082104000821040008DC
:1000700021040008210400082104000821040008CC
:1000800021040008210400082104000821040008BC
:1000900021040008210400082104000821040008AC
:1000A000210400082104000821040008210400089C
:1000B000210400082104000821040008210400088C
:1000C000210400082104000821040008210400087C
:1000D000210400082104000821040008210400086C
:1000E000210400082104000821040008210400085C
:1000F000210400082104000821040008210400084C
:10010000210400082104000821040008210400083B
:10011000210400082104000821040008210400082B
:10012000210400082104000821040008210400081B
:100130002104000800000000000000002104000865
:1001400021040008210400082104000821040008FB
:1001500021040008210400082104000821040008EB
:1001600021040008210400082104000821040008DB
:1001700021040008210400082104000800000000F8
:100180000000000021040008000000000000000042
:100190002104000800000000000000002104000805
:1001A0000000000000000000000000002104000822
:1001B000210400082104000821040008210400088B
:0401C000210400080E
:1001C4000348044B834202D0034B03B118477047E2
:1001D4000800002008000020000000000548064B2D
:1001E4001B1AD90F01EBA301491002D0034B03B131
:1001F4001847704708000020080000200000000095
:1002040010B5064C237843B9FFF7DAFF044B13B15A
:100214000448AFF300800123237010BD08000020C0
:10022400000000007005000808B5054B1BB1054926
:100234000548AFF30080BDE80840FFF7CFBF00BF1B
:10024400000000000C0000207005000870B40A4C87
:1002540066680A4D3540084340EA821005436560EC
:10026400626822F440321A436260626822F0E0421B
:100274001343636070BC7047003802400080BFFFC6
:1002840010B5354A136823F00F0343F002031360DB
:10029400314B1B6803F00F03022BF9D12F4A13686B
:1002A40023F4404343F480431360136823F48033FE
:1002B400136002F5E432136823F0F80343F080037B
:1002C4001360136843F001031360254B1B6813F09C
:1002D400020FFAD04FF480334FF4A872102100209B
:1002E400FFF7B4FF1E4A136843F0807313601C4B7E
:1002F4001B6813F0007FFAD0184B5B6813F4804F2F
:10030400FAD0174B9A6822F0F0029A609A6822F4A5
:10031400E05242F480529A609A6822F460429A60F1
:100324009A6822F0030242F002029A600C4B9B6826
:1003340003F00C03082BF9D10A4C204600F070F8A6
:10034400204600F07DF8064AD2F88C3023F0807302
:10035400C2F88C3010BD00BF003C02400070004069
:100364000038024000BD010500B583B00F4B5A6C44
:1003740042F480425A645A6C02F480420192019A17
:100384001A6C42F080521A641B6C03F08053009381
:10039400009B0749CA6822F4E0621204120C054B60
:1003A4001343CB60FFF76CFFFEE700BF0038024049
:1003B40000ED00E00007FA05FEE7FEE7FEE7FEE7D2
:1003C400FEE770477047704770477047DFF834D0D6
:1003D400FFF7FBFF0C480D490D4A002302E0D458F7
:1003E400C4500433C4188C42F9D30A4A0A4C00237B
:1003F40001E013600432A242FBD300F027F8FFF7B8
:10040400B3FF704700000220000000200800002015
:100414009405000808000020BC010020FEE700004D
:10042400064BA3FB00239B09013B4FF0E0225361E1
:100434000023936105231361704700BFD34D6210FD
:10044400014B1860704700BF0000002070B50F4BCF
:100454000F4DAB42A3EB050607D0B610002455F8A8
:10046400043B01349847A642F9D800F07FF8094DBF
:10047400094B5E1BAB424FEAA60606D0002455F892
:10048400043B01349847A642F9D870BD880500089A
:10049400880500088805000890050008704700BF1B
:1004A400704700BF024B13B1024800F005B8704713
:1004B40000000000C9040008002301461A4618463B
:1004C40000F014B838B5074D074C2C1BA41005D008
:1004D400013C55F8043D9847002CF9D1BDE838405B
:1004E40000F04AB894050008900500082DE9F84387
:1004F4001B4D0646286898460F469146FFF7CEFFE7
:10050400184B1C681CB3286865681F2D22DC4EB983
:100514006B1C0235636044F82570FFF7C1FF0020AF
:10052400BDE8F88304EB85010123C1F88890D4F871
:100534008821AB401A43022EC4F88821C1F80881EF
:10054400E6D1D4F88C211A43C4F88C21E0E7064C98
:100554001C60D8E7FFF7A4FF4FF0FF30E0E700BFCF
:1005640004000020280000202C000020F8B500BF63
:10057400F8BC08BC9E467047F8B500BFF8BC08BC80
:040584009E467047D8
:08058800A90400082D0200087F
:040590000502000858
:080594000024F4002400002003
:04000005080003D11B
:00000001FF
